:020000040000FA
:10000000680A0020C9130000F1010000F901000096
:1000100000000000000000000000000000000000E0
:10002000000000000000000000000000F3010000DC
:100030000000000000000000F5010000F7010000D2
:10004000670200009D020000D3020000E7020000EA
:100050006302000065020000B90200001D020000FA
:1000600023020000E9020000D10200001502000096
:100070001302000011020000000000000000000058
:100080000000000000000000000000000000000070
:100090000000000000000000000000000000000060
:1000A0000000000000000000000000000000000050
:1000B0000000000000000000000000000000000040
:1000C00000F002F800F030F80CA030C8083824180E
:1000D0002D18A246671EAB4654465D46AC4201D180
:1000E00000F022F87E460F3E0FCCB6460126334282
:1000F00000D0FB1AA246AB4633431847C04E00005F
:10010000E04E00000023002400250026103A01D311
:1001100078C1FBD8520700D330C100D50B607047BF
:100120001FB51FBD10B510BD03F03BFD1146FFF715
:10013000F7FF00F025F803F053FD03B4FFF7F2FFDB
:1001400003BC03F059FD000070B505460C46164689
:1001500002E00FCC0FC5103E102EFAD2082E02D3AB
:1001600003CC03C5083E042E07D301CC01C5361FBE
:1001700003E021782970641C6D1C761EF9D270BDD5
:100180001CB500F0CCF800F0B9F900F0CDFB00F0A0
:10019000E8FD0120009014231A4600210190084632
:1001A00000F07AFB00F066FB03F05EFA01E003F07A
:1001B000CBFAFCE7002102E000BF4A1C91B2814269
:1001C000FADB70470848007800280CD00020064968
:1001D000087006480088401C80B204490880142832
:1001E00001DB0020088070470A000020000000208A
:1001F000704770477047704700BFBFF34F8F3C4850
:100200003C49C860BFF34F8F00BF00BFFEE7704797
:10021000704770470F2038498860704770477047B3
:1002200070473648006A02210840002808D0334849
:10023000006A0843314908620846C06830490870BE
:100240002E48006AC007C00F002805D02B48006A5E
:100250000121084329490862FF20284908627047A4
:1002600070477047704710B52648006A042108405F
:10027000002812D004202349086201202249087076
:10028000224801880088401C204A10800A2904DB8B
:1002900000201146088000F0EEFC10BD1C48006AEA
:1002A00004210840002802D0042019490862704740
:1002B000704770477047704710488038C068082101
:1002C0000840002803D008200C498039C8607047D6
:1002D00070471048406920210840002802D02020A3
:1002E0000C494861704770470B480A4908637047DA
:1002F0000400FA0500ED00E0800A01400009014019
:1003000006000020000501400A000020080000202F
:100310000006014080070140CDAB0000704700207F
:10032000A449A54A9162D1050969D2131143D203A8
:10033000116100BF01E0401C00BFC828FBD39F49EA
:100340009D4A11602221D16170470EB5684600F0C8
:10035000B2FD012168460171FF207130009000213B
:10036000684641716946964800F046FD012168469D
:10037000017180200090684641716946904800F004
:100380003BFD0021684601710120400200900121DF
:100390006846417169468A4800F02EFD0021684692
:1003A00001710320800200906846417169468448CB
:1003B00000F022FD04220921814800F0A8FD04225A
:1003C00007217F4800F0A3FD002204217C4800F0B3
:1003D0009EFD002205217A4800F099FD00220621A9
:1003E000774800F094FD00220821754800F08FFD49
:1003F00000220A21724800F08AFD00220B21704879
:1004000000F085FD0021684601714820009001211F
:100410006846417169466A48403000F0EDFC0121B0
:1004200068460171102000900021684641716946BC
:100430006348403000F0E0FC002203216048403077
:1004400000F065FD002204215D48403000F05FFDB2
:10045000002206215A48403000F059FD0EBD0EB56D
:10046000684600F028FD5348534988626020486080
:1004700000216846017141710120400200906946E7
:100480004F48403000F0B8FC0121684601714171CD
:100490000420009069464A4800F0AEFC0022022188
:1004A000474800F034FD002209214548403000F063
:1004B0002EFD0EBD002000BF01E0401C00BFC8287B
:1004C000FBD3704700B597B0684600F05CFF012091
:1004D0000090099000200A900B90012007900020C6
:1004E0000190384806900020159004900420169042
:1004F0006946354800F0F6FE17B000BD10B572B67B
:100500002C482D49886201F02FF801200004006872
:100510000121C9040843C9100860FFF7CBFFFFF7AA
:1005200014FFFFF7CFFF29482349886202210020EA
:1005300000F008F8002001218140254A116000BF29
:1005400062B610BD10B5002819DA224A03071B0F46
:10055000083B9B089B00D2588307DC0EFF23A34077
:100560009A438B071B0E8407E40EA3401A43194BD2
:100570000407240F083CA408A4001A5118E0144AE8
:1005800003231B02D21883089B00D2588307DC0E7A
:10059000FF23A3409A438B071B0E8407E40EA3405E
:1005A0001A430B4B032424021B198408A4001A517C
:1005B00010BD0000837A000080000040FF010000B1
:1005C00000080140E4BB000000050140FFFF0000FF
:1005D00000E100E01CED00E070B504462646002571
:1005E00026E0D748C06810218843D549C8608020DC
:1005F0003040002806D10846C06820218843D049F1
:10060000C86005E0CE48C06820210843CC49C860D6
:100610007006060E012000F009FFC948C0681021CD
:100620000843C749C860012000F000FF681CC5B23C
:10063000082DD6DBC248C06810218843C049C86075
:10064000012000F0F3FEBE48C06820210843BC49E9
:10065000C860012000F0EAFEB948C06810210843D4
:10066000B749C860012000F0E1FEB548C06810211C
:100670008843B349C860012000F0D8FE70BD10B5B2
:10068000AF48C06820210843AD49C860012000F090
:10069000CDFEAB48C06810210843A949C8600120BD
:1006A00000F0C4FEA648C06820218843A449C86061
:1006B000032000F0BBFEA248C06810218843A04977
:1006C000C86010BD10B59E48C068202188439C4971
:1006D000C860012000F0AAFE9948C06810210843B4
:1006E0009749C860032000F0A1FE9548C06820210A
:1006F00008439349C86010BD10B50446FFF7BFFF1B
:100700007820FFF769FF0020FFF766FF2046FFF71C
:1007100063FFFFF7D7FF10BD10B50446FFF7AFFF2B
:100720007820FFF759FF4020FFF756FF2046FFF7DC
:1007300053FFFFF7C7FF10BD70B505460C46A01C60
:10074000C4B2B02129430846FFF7D6FFF02121406B
:100750000911102211430846FFF7CEFF2007000FB2
:10076000FFF7CAFF70BDF0B503461446002B3EDB11
:100770007F2B3CDC00293ADB3F2938DC002C1BD0E6
:100780000846CD176D0F2D18ED10ED016D4EAD190A
:10079000ED5C0A46CE17760FB618F610F6008F1BE2
:1007A0000126BE403543CE17760F3618F610F601F7
:1007B000644FF619F5541AE00846CD176D0F2D1841
:1007C000ED10ED015F4EAD19ED5C0A46CE17760FC8
:1007D000B618F610F6008F1B0126BE40B543CE17A3
:1007E000760F3618F610F601564FF619F554F0BD8F
:1007F00070B505460E46FFF742FF7820FFF7ECFE86
:100800004020FFF7E9FE002404E0285DFFF7E4FE46
:10081000601CC4B2B442F8DBFFF754FF70BD10B5E2
:10082000A0B08021684603F00AF9002409E0002105
:100830002046FFF781FF80216846FFF7D9FF601C43
:10084000C4B2082CF3DB20B010BD70B500240CE05E
:10085000002506E00020E1013A4A89184855681C45
:10086000C5B2802DF6DB601CC4B2082CF0DBFFF7AC
:10087000D6FF70BD10B500240BE000212046FFF725
:100880005BFFE1012F4A88188021FFF7B1FF601C50
:10089000C4B2082CF1DB10BDFFB581B005460E4691
:1008A00017460A98002826D12C460DE031462046EE
:1008B0000B9AFFF758FF04983018411E20460B9AF8
:1008C000FFF751FF601C04B2E819A042EEDC344689
:1008D0000CE0214628460B9AFFF745FFE919481E10
:1008E00021460B9AFFF73FFF601C04B204983018B2
:1008F000A042EEDC16E02C4611E0009608E020460F
:100900000B9A0099FFF72FFF0098401C00B200904F
:100910000498311800988142F1DC601C04B2E81997
:10092000A042EADC05B0F0BD10B5002405E00649A0
:10093000085DFFF7E1FE601CC4B2192CF7DB10BDA7
:10094000000801402C020020783C00000146CD4800
:100950000268002903D0CC480078202802D9002062
:10096000C043704705E08A4202D10020C043F8E747
:100970001268002AF7D1C34800680860C87EE023E7
:100980009843C876C87E1E2398431630C876002048
:100990008881C8811E200882BA480160C87EC007CD
:1009A000C00FB94B1B789840B84B1B681843B74B26
:1009B0001860B5480078401CB34B18701846007892
:1009C000CFE770B50026AF480468AF480078401EF6
:1009D000C5B207E0204661688847A84006432468FE
:1009E000681EC5B2002C02D060680028F2D1F04326
:1009F000A64909684840A649086070BD70B5002640
:100A0000A0480468A0480078401EC5B229E1E07EF5
:100A10004009002808DDA089401CA081A0899D49CB
:100A2000884201DB208BA081E07E4009002804D0B1
:100A3000012824D0022821D1DBE00120A8409449DC
:100A400009680840002814D00020A081E08100BF80
:100A5000E07E1E218843E076A068002802D0204670
:100A6000A168884700BFE07EE02188432030E0761F
:100A700004E0E07E1E2188431630E076E7E00120A6
:100A8000A840834909680840002867D0E089002809
:100A900022DDA089218A88421DDD00BFE07E1E2163
:100AA0008843E189032901DAE18900E00321490053
:100AB0001E2211400843E076A068002802D020469C
:100AC000A168884700BFE07EE02188432030E076BF
:100AD0000020A081E0818BE0A089218B884211DB7E
:100AE000E07EC006000F0828F5D000BFE07E1E2182
:100AF00088431030E076A068002802D02046A16824
:100B0000884775E0A089E18A884211DBE07EC00653
:100B1000000F06286CD000BFE07E1E2188430C30F9
:100B2000E076A068002802D02046A16888475FE0F0
:100B3000A089A18A88425BDBE07EC006000F042802
:100B400056D000BFE07E1E2188430830E076A068C2
:100B5000002802D02046A168884749E0A089218B5F
:100B6000884211DB00BFE07E1E2188431230E07610
:100B7000A068002802D02046A168884700BFE07E18
:100B8000E0218843E07633E0A089E18A884211DBE6
:100B900000BFE07E1E2188430E30E076A06800286A
:100BA00002D02046A168884700BFE07EE02188434C
:100BB000E0761DE0A089A18A884211DB00BFE07EBB
:100BC0001E2188430A30E076A068002802D0204623
:100BD000A168884700BFE07EE0218843E07607E017
:100BE000E07EE02188434030E076E089401CE081EF
:100BF0002DE00120A840264909680840002807D0B8
:100C0000E07EE02188432030E0760020A0811DE0D6
:100C1000A089218A884219DD00BFE07E1E21884319
:100C2000E189032901DAE18900E0032149001E225C
:100C300011400843E076A068002802D02046A16851
:100C4000884700BFE07EE0218843E07600BF00BF18
:100C5000E07E4009002801DD701CC6B22468681ED1
:100C6000C5B2002C00D0D2E6304670BD0146C87E29
:100C7000C006000F704710B5FFF7A3FEFFF7BEFEDA
:100C800010BD00000C000020180000201000002003
:100C900014000020FFFF000070B504460125264621
:100CA000B07E002804D0012809D0022815D10DE01B
:100CB00001218902484800F004F905460EE00121AF
:100CC000C902454800F0FDF8054607E00821424802
:100CD000403000F0F6F8054600E000BF00BF2846AF
:100CE00070BD10B504463D48FFF7C0FF002805D190
:100CF00001203B4908700D203A49088037481C30D4
:100D0000FFF7B4FF002806D1012037490870FF2003
:100D10003C303449088031483830FFF7A7FF0028BD
:100D200006D1012031490870FF203E302D4908804E
:100D300010BD2B48007870472B48007870472B482F
:100D40000078704700202649087070470020264927
:100D500008707047002025490870704721480088B6
:100D6000704710B554211D4802F069FE00242FE0A1
:100D70001C206043194A801884761D491C2060435A
:100D8000801841601B491C206043801881601C2032
:100D9000604311464018C07E400840001C2161435A
:100DA0008918C87696211C206043801881824900EA
:100DB0001C2060438018C182FF21C3311C20604386
:100DC000801801831C2161438818FFF7BFFD641C54
:100DD000032CCDDB10BD0000000801402C060020D4
:100DE0001C0000201A0000201D0000201E00002012
:100DF000990C0000E30C0000F0B50B460022002423
:100E00000025002100BF53E00126964034461E68AD
:100E100026403546A5424AD11E79002E0CD10168E4
:100E200001269640314301604168012696400F46F5
:100E3000B7433946416018E01E79012E0BD1016895
:100E400096400F46B74339460160416801269640F7
:100E50003143416009E01E79022E06D14168012626
:100E600096400F46B743394641605E79012E04D162
:100E700001699640314301610CE05E79022E09D090
:100E80005E79002E06D10169012696400F46B743D0
:100E90003946016181699E68012E02D19640314335
:100EA00004E0012696400F46B74339468161521C43
:100EB000102AA9D3F0BD0021016001714171816048
:100EC00070470246002093680B40002B01D00120A0
:100ED00000E0002070470146886870470246002005
:100EE000D3680B40002B01D0012000E000207047A8
:100EF0000146C86870470163704741637047002A24
:100F000001D0016300E041637047C160704730B5B4
:100F10000C46230002F0A2FE10090F171E252B33EA
:100F20003A41474F565D636B7279016AA44D29407F
:100F30008B1803626AE0016AA14DE13D294013016B
:100F40005B18036262E0016A9E4D294013025B1840
:100F500003625BE0036A1905090D13035B18036262
:100F600054E0416A964D29408B1843624EE0416A35
:100F7000934DE13D294013015B18436246E0416A0D
:100F8000904D294013025B1843623FE0436A190504
:100F9000090D13035B18436238E0816A884D2940CC
:100FA0008B18836232E0816A854DE13D294013014F
:100FB0005B1883622AE0816A824D294013025B1824
:100FC000836223E0836A1905090D13035B188362AA
:100FD0001CE0C16A7A4D29408B18C36216E0C16AD1
:100FE000774DE13D294013015B18C3620EE0C16AF1
:100FF000744D294013025B18C36207E0C36A1905E8
:10100000090D13035B18C36200E000BF00BF30BDD1
:1010100010B56D4B984271D10B0002F01FFE100904
:101020007C147C202C38434E597C7C7C7C64707C06
:10103000654B80331B68624C0C3423401343624C75
:101040008034236068E0604B80331B685C4CE41C98
:101050002340940023435C4C803423605CE05A4B73
:1010600080331B68564C213C234014012343564CCB
:101070008034236050E0544B80331B68504CB13CAB
:10108000234094012343504C8034236044E04E4B72
:1010900080331B684D4C2340140223434A4C803458
:1010A000236039E0484B80331B68494C234094024D
:1010B0002343454C803423602EE0434B80331B6830
:1010C000444C2340140323433F4C8034236023E0EB
:1010D0003D4B80331B689B049B0C940323433A4C89
:1010E0008034236018E0384B80331B68344C0C3458
:1010F00023401343344C803463600DE00DE0324BE9
:1011000080331B682E4CE41C2340940023432E4C58
:101110008034636000E000BF00BF2B4B4033984237
:101120004DD10C1F230002F099FD0604101C27323C
:101130003D48254B80331B68214C213C2340140142
:101140002343214C8034636038E01F4B80331B689D
:101150001B4CB13C2340940123431B4C80346360FF
:101160002CE0194B80331B68184C23401402234396
:10117000154C8034636021E0134B80331B68144CA2
:10118000234094022343104C8034636016E00E4BDE
:1011900080331B680F4C2340140323430A4C8034D4
:1011A00063600BE0084B80331B689B049B0C94032B
:1011B0002343054C8034636000E000BF00BF10BDD6
:1011C000F0FF0000FFF0000000080140FFFC0000FD
:1011D000FFF30000FFCF00003E4A3F4B9A62DA0562
:1011E00011694904490C0268D2031143DA051161FF
:1011F00083681B024268D218374B1A60C2681A61B2
:1012000002699A614269DA6100229A62704700219C
:101210000160FF214160012181600021C160016105
:10122000416170472D482E49486270472C48406AFA
:101230007047284A284B9A62002904D01A46D2697E
:101240000243DA6104E0244AD2698243224BDA6124
:101250000022214B9A6270471E4A1F4B9A62012955
:1012600015D18A020240002A09D08A0712698B022E
:101270009A438B071A618B0202469A431046012259
:1012800092071269024301239B071A6115E00122AC
:1012900092020240002A09D001229207126901231A
:1012A0009B021A431B051A611A151043012292076B
:1012B0001269824301239B071A610022064B9A623E
:1012C00070470449044A9162114648620021516204
:1012D00091627047837A00008000004040CA00009D
:1012E000000C014070B505460C463548854203D1D7
:1012F00001212020FFF79DFF3248854203D10121C3
:101300004020FFF796FF2078C0072179C9060843DF
:10131000217A89060843217B09060843218A0905A9
:101320000843A18A09040843E16909030843216AC3
:10133000C9020843616A89020843A16A4902084355
:10134000E16A09020843616B09010843A16BC90006
:101350000843E16B89000843216C49000843616C34
:1013600008432860A0696860E06CA860A06CE86031
:10137000206B2861206D6861606DA861A06DE861D7
:101380000720286270BD0021016041608160C1605A
:101390000161416181610121C161016200214162FC
:1013A0008162C16201634163012181630021C163E4
:1013B000016441648164C164016541658165704770
:1013C0000005014000060140094880F308880948EB
:1013D000804709480047FEE7FEE7FEE7FEE7FEE735
:1013E000FEE7000005480649044A064B7047000026
:1013F000680A00201D030000C100000068080020EA
:10140000680A0020680800204049096904229143C5
:101410003E4A1161C1083E4A11601146098889B2ED
:101420007D22D20051433B4A1160704701460020A3
:1014300030E0421CD0B2421CD0B2421CD0B2421C9E
:10144000D0B2421CD0B2421CD0B2421CD0B2421C1C
:10145000D0B2421CD0B2421CD0B2421CD0B2421C0C
:10146000D0B2421CD0B2421CD0B2421CD0B2421CFC
:10147000D0B2421CD0B2421CD0B2421CD0B2421CEC
:10148000D0B2421CD0B2421CD0B2421CD0B2421CDC
:10149000D0B2491E0029CCD1704701461D4A1268BE
:1014A0004A431A4B5A6100229A6101221A6100BF15
:1014B000164A1069C207D20F002A04D00122120472
:1014C0000240002AF4D00022104B1A619A61704742
:1014D00070B5064687218900304602F0B2FAC4B2E0
:1014E00087218900304602F0ACFA0D4605E08720DE
:1014F0008000FFF7D2FF601EC4B2002CF7D1002D90
:1015000002D02846FFF7C9FF70BD000000E000E0F0
:1015100020000020240000200168090142681143D6
:10152000174A516017491160C16811618268C1682A
:10153000914205D98268C168891A114AD16003E0D5
:10154000012109030E4AD1600E490D4A11600E496E
:10155000916070470021016041601721090381609B
:101560001F210903C16070470F20800204494860B1
:1015700070470448024908600348886070470000CB
:10158000000C0140B4A600008D790000F8B50446B7
:101590000E4617461D46606900280ED0012D05D164
:1015A0000122394630466369984706E0002D04D190
:1015B00000223946304663699847F8BDFFB581B0CF
:1015C000074615461E462C4606E0224638460A9B2C
:1015D0000299FFF7DBFF641CB442F6DD05B0F0BDF5
:1015E000FFB581B00D4616461F462C4606E03A462A
:1015F00021460A9B0198FFF7C9FF641CB442F6DD3F
:1016000005B0F0BDFFB581B00D4616460B98401CE5
:10161000002834D001988069002827D10A990498BD
:10162000884211DD34460AE00B980090049828188F
:10163000421E234629460198FFF7D2FF641C0A98F0
:101640003018A042F0DC1AE02C460AE00B9800901B
:101650000A983018431E324621460198FFF7AEFF24
:10166000641C04982818A042F0DC08E00B98009055
:1016700001988769314628460A9B049AB84705B005
:10168000F0BDFFB583B015461C460D9F0C9E002C87
:101690005BDD002E59DD012C08D1012E06D13B4621
:1016A0002A4604990398FFF771FF4EE0012C08D1F8
:1016B000A819431E2A46009704990398FFF77EFF56
:1016C00043E0012E09D1009704980019421E2B46D1
:1016D00004990398FFF784FF37E0009704980019F6
:1016E000421E2B4604990398FFF77AFFA819431E60
:1016F000009704980019421E04990398FFF770FFA1
:10170000A819831E6A1C009704990398FFF756FFD7
:10171000A819831E009704980019411E6A1C03989B
:10172000FFF74CFF0E98401C00280ED0022C0CDD59
:10173000022E0ADDB01E0E99A31E6A1C01910090B4
:101740000499491C0398FFF75DFF07B0F0BD3EB553
:101750000446002C12D02069002805D0E06900283A
:1017600002D02069804709E0002160780191029150
:10177000009023780A462046FFF783FF3EBDFFB561
:1017800087B00020059004900590049008990A986D
:10179000451A09991098461A0898029009980190DC
:1017A000002D01DD012706E0002D01D1002702E018
:1017B0000027FF436D42002E02DD0120069008E065
:1017C000002E02D10020069003E00020C0430690C6
:1017D0007642B54201DD2C4600E0344600200390FD
:1017E00021E0119B019A02990798FFF7CFFE059817
:1017F000401905900598A04205DD0598001B05904D
:101800000298C01902900498801904900498A0428C
:1018100006DD0498001B0490069901984018019079
:101820000398401C0390611C03988842D9DD0BB0DB
:10183000F0BDFFB587B00E4617460A9C0025681E0E
:1018400006900A9C60000121081A0590012004906E
:10185000002003900A9C002C08DD0A98012806D17C
:101860003A463146109B0798FFF790FE84E080E0EF
:101870000A9801281EDD1198401C00281AD00698ED
:10188000A04217D07819401E1199331B0191009086
:10189000781B421C311B0798FFF771FF7819401E17
:1018A0001199331901910090781B421C3119079846
:1018B000FFF765FF3819401E1199731B01910090C5
:1018C000381B421C711B0798FFF759FF3819401E3F
:1018D0001199731901910090381B421C71190798D6
:1018E000FFF74DFF7A1B3119109B0798FFF74EFE4B
:1018F0003A1B7119109B0798FFF748FE3A1B711BA2
:10190000109B0798FFF742FE7A1B311B109B07982C
:10191000FFF73CFE7A19311B109B0798FFF736FE44
:101920003A19711B109B0798FFF730FE3A1971198D
:10193000109B0798FFF72AFE7A193119109B079818
:10194000FFF724FE06946D1C049903984018039039
:101950000498801C049003984100059808180028FA
:1019600007DD641E05990398401803900598801CB4
:101970000590AC4200DB7BE70BB0F0BDFFB587B054
:101980000C4615461E4600200390029021780798C9
:101990000078814279DA6178079840788142F9DAF3
:1019A0002078A1784018401E00286EDD6078E1782C
:1019B0004018401E0028F8DD2878002801DD307826
:1019C00002E03078297840180028EEDD6878002899
:1019D00001DD707802E07078697840180028E4DD55
:1019E00020780690002004902878002804DD2978CB
:1019F00006980818069003E029780498401A049085
:101A0000049803906BE0716804980818009060785F
:101A1000059000276878002804DD69780598081883
:101A2000059001E068783F1A02973846F917490F88
:101A30000918C910C900791A0191F917490F091835
:101A4000C91032785143009A891800912EE001980C
:101A5000082805D1002001903178009840180090A6
:101A600000980078012201998A401040002801DD89
:101A7000012100E000211098814207D00123059A3E
:101A800006990798FFF782FD06E038E00023059AE3
:101A900006990798FFF77AFD0298401C029001987A
:101AA000401C01900598401C05907F1C717802989D
:101AB00081420BDD6078E1784018401E059988422C
:101AC00004DB0798417805988142C0DC0398401CEC
:101AD00003900698401C06900498401C04903178AE
:101AE000039881420BDD2078A1784018401E0699AA
:101AF000884204DB079801780698814283DC0BB0AA
:101B0000F0BD30B503461C788C420EDC1C789D7805
:101B10006419641E8C4208DB5C78944205DC5C78B6
:101B2000DD786419641E944201DA002000E001208F
:101B300030BDFFB587B00D461746119C26460020E4
:101B40000690401E059060000121081A04900120B3
:101B500003900020029061000A9881427EDA6100C1
:101B600010988142FADA1298009701900A98281882
:101B7000401E031B29193A460798FFF700FE1098EC
:101B80003818401E1299019100900A982818401E9A
:101B9000031B10983818421E29190798FFF7EFFD0C
:101BA000F2E01398401C00282CD00698864211D0F1
:101BB00013983919009006980B1A0A982818001BD8
:101BC0008019821E2819801B401C0146019007982D
:101BD000FFF706FDA64215D00598B04212D0139823
:101BE00000903819831B0A982818011B06980818BA
:101BF000821E29190698081A401C01460190079870
:101C0000FFF7EEFC391906980A1A2819801B019073
:101C10000146129B0798FFF7B9FC3819821B291956
:101C20000698081A01900146129B0798FFF7AEFC30
:101C3000391906980A1A0A982818001B8019401E9C
:101C400001900146129B0798FFF7A0FC3819821BF0
:101C50000A982818011B0698081800E0C9E0401EE1
:101C600001900146129B0798FFF790FC1398401CC7
:101C7000002832D00698864214D01398009010980D
:101C80003818011B06980818431E0A982818001BCC
:101C90008019821E2819801B401C0146019007985C
:101CA000FFF79EFCA64218D00598B04215D01398B5
:101CB000009010983818001B8019431E0A982818A5
:101CC000011B06980818821E29190698081A401C3C
:101CD000014601900798FFF783FC10983818011B04
:101CE00006980818421E2819801B01900146129B75
:101CF0000798FFF74BFC10983818001B8019421EFC
:101D000029190698081A01900146129B0798FFF7B7
:101D10003DFC10983818011B06980818421E0A98B6
:101D20002818001B8019401E01900146129B07983D
:101D3000FFF72CFC10983818001B8019421E0A98D7
:101D40002818011B06980818401E01900146129B96
:101D50000798FFF71BFC05960698401C0690039910
:101D60000298401802900398801C0390029841004A
:101D700004980818002807DD761E04990298401878
:101D800002900498801C04900698864200DB08E7C5
:101D900010983818001B401E12993A192B460191D1
:101DA000009029460798FFF7EAFC10983818001BA6
:101DB000401E1299019100900A982818431E3A1962
:101DC0000A982818411E0798FFF7D9FC1398401C61
:101DD00000280ED062001098801A801E139901917D
:101DE00000900A98831E3819421C691C0798FFF757
:101DF00009FC0BB0F0BD00281BD0002919D00278D7
:101E0000002A09DA0A780378D2180A7082780378EF
:101E1000D2188270002202704278002A09DA4A78C9
:101E20004378D2184A70C2784378D218C270002220
:101E300042707047FFB587B01F46002004900590A0
:101E4000069006AD033504AC28706D1E0026079879
:101E500000280DDA0998102804D100200290079874
:101E6000039009E00120029007984042039003E0AC
:101E7000002002900798039015E00999039801F05B
:101E8000E0FD019101990A2903D2019830302870B0
:101E900002E00198373028700999039801F0D1FDCC
:101EA00003906D1E761C03980028E6D10298012845
:101EB00003D12D202870761C00E06D1C03E02878EB
:101EC00020706D1C641CA01B04A98842F7D1002E51
:101ED00004D104AC30202070641C761C00202070DB
:101EE000002F1BDD04A88019451EBE4201DD3746C8
:101EF00000E03E460898C41900202070641E09E0E6
:101F000004A8854203D3287820706D1E01E0109844
:101F10002070641E08988442F2D217E07F42BE42CD
:101F200001DD374600E03E46089C04AD0AE0287813
:101F3000002803D0287820706D1C01E010982070D4
:101F4000641C7F1E002FF2DC0020207030460BB096
:101F5000F0BDFFB589B01F4600200690079008909D
:101F60000998002805DA012004900998404205905C
:101F700003E000200490099805900A98002876DD77
:101F80000A980290129800230A2206A90090059848
:101F9000FFF750FF039006A903980818461E0399FF
:101FA0000298884202DA0398451C01E00298851CD9
:101FB0000B98411904980C1800202070641E06E04C
:101FC00030782070641E761E0298401E029006A88B
:101FD000864202D302980028F2DC05E0302020700F
:101FE000641E0298401E029002980028F6DC2E2003
:101FF0002070641E03990A98884203DB3020207009
:10200000641E07E003E030782070641E761E06A888
:102010008642F8D20498002801DD2D202070049813
:102020002D18002F1BDD0B984019461EBD4201DD07
:102030002F4600E03D460B98C41900202070641E16
:1020400009E00B98864203D330782070761E01E0B9
:1020500012982070641E0B988442F2D21DE07F42D9
:102060000B9E0B9E7419BD4202DD002702E00BE0BF
:102070007F1BED1902E012982070641C38467F1E09
:102080000028F8D1207008E012983B460A22009000
:102090000B990998FFF7CEFE054628460DB0F0BD16
:1020A00070B503460C4600201946002969D000E0AF
:1020B000491C0E78202EFBD0102A48D10E78302EE5
:1020C00006D14E78782E02D04E78582E00D1891C39
:1020D00022E00E78302E04DB0E78392E01DC01264A
:1020E00000E00026002E02D00E78303E0FE00E7881
:1020F000412E04DB0E785A2E01DC012600E000267A
:10210000002E01D00E7801E00E78203E373E354695
:10211000064656437019491C0E78002E31D00E78B1
:10212000412E02DB0E78462E0BDD0E78612E02DB8F
:102130000E78662E05DD0E78302E04DB0E78392EF3
:1021400001DC012600E00026012EC2D019E0082A99
:1021500001D00A2A15D106E00E783546303D0646F4
:1021600056437019491C0E78002E0AD00E78302E76
:1021700004DB0E78392E01DC012600E00026012E5A
:10218000EAD0002C00D0216070BDF7B581B00546C3
:1021900016460027012000902C46002C22D000E09B
:1021A000641C20782028FBD00A2E01D0082E0BD1E9
:1021B00020782B2801D1641C06E020782D2803D13B
:1021C000641C0020C0430090324620460299FFF76D
:1021D00067FF0746002F05DD0021C94300988842AC
:1021E00000D17F42384604B0F0BD10B503460A4620
:1021F00011461846002B13D0002A09DACC43611C83
:1022000001E08068491E00290ADD0028F9D107E0B5
:10221000114601E0C068491E002901DD0028F9D1FE
:1022200010BDFFB581B004461E46002C4BD003986C
:10223000002848D00398206304222046029901F028
:102240009FFB226B9278911CE278501E01F003FCF8
:10225000401CA0620A98E0600020E0620A98002812
:102260002ADD666067680020B860F86001250CE030
:10227000280180198760002029018919C860280178
:102280008019F860280187196D1C0A988542EFDBD8
:10229000A7600020206161686161A0616168E161FF
:1022A000A16AA0694018401E2062A26A511E60689F
:1022B000FFF79BFF606206E000206060A060401EA8
:1022C00020610021616105B0F0BDF0B587B0064620
:1022D0000C46012069460875002E7ED0002CFCD0EB
:1022E000A16AE06888420ADA0021E078019102914F
:1022F0000090A378627821783046FFF7C2F9E06851
:1023000000286ADD2069002803DA00202061616866
:102310006161E1682069884204DBE068401E206159
:10232000A1686161A169206988420EDA6269216948
:10233000E261A161A26A511EE069FFF756FF606287
:10234000A16AA0694018401E2062216A2069884263
:102350000FDD62692169626221620123A26A991A12
:10236000606AFFF742FFE061A16A206A401A401CE0
:10237000A06121786846017661784176A1788176FE
:10238000A1692069884202D0606A00280CD100202F
:10239000E062A06A012803DD206B8078801C00E0E9
:1023A000E0786946C87623E0216A206988421AD11C
:1023B000226B9278911CE07801F04DFB206B8078C5
:1023C000801C0F1A206B8078811C384601F043FB7B
:1023D000E162206B8078801C00E092E0A18D4018C3
:1023E0006946C87604E0206B8078801C6946C87610
:1023F000E569A08D401C694648756868002801D1D0
:10240000286800E0686804906069A84201D1012052
:1024100000E0002005A90091019006AB226B304638
:10242000049900F077FCED68206B8078801C694689
:10243000C876A06A012864DD206B8078801CA18D9D
:1024400041186846407E0818C1B2684641760121AD
:1024500041751FE06868002801D1286800E06868BD
:1024600004906069A84201D1012000E0002005A984
:102470000091019006AB226B3046049900F04AFCB3
:102480006846417E206B8078801C0818C1B268467F
:102490004176ED68606AA84201D0002DDAD1002DA6
:1024A0002FD0E06A002806D1226B9278911CE07848
:1024B00001F0D1FA02E0206B8178891C6846C17670
:1024C000C07E002803D1206B8078801C01E0684624
:1024D000C07E6946C8766868002801D1286800E097
:1024E000686804906069A84201D1012000E00020E2
:1024F00005A90091019006AB226B3046049900F0CB
:1025000009FC07B0F0BD10B502465068002301E099
:10251000C0685B1C8B4201D00028F9D110BD70B59A
:1025200004460E461546002C5CD0002E5ADBE068AF
:10253000B04257DD002D55D020782870A078A870C3
:10254000A069B04202DC206AB04203DA0020687061
:10255000E87047E0E06A002824D16169606A81423E
:1025600020D1206B8078801C218D491E48436178E2
:1025700040186870E06A002806D1226B9278911C9E
:10258000E07801F068FA02E0206B8178891CE9703C
:10259000E878002803D1206B8078801C00E0E87880
:1025A000E8701FE0E06A00280CD06169E0698142B0
:1025B00008D160786870206B8078801CA18D4018ED
:1025C000E8700FE0207C217E401A216B8978891CFD
:1025D000484361784018A18D40186870206B80785E
:1025E000801CE87070BD70B504460D460422294673
:1025F000204601F0C5F9226B9278911CE278501EBA
:1026000001F029FA401CA062E168A06A88420BDD53
:102610006168E1610020A06100216162A06A401E42
:1026200020620020E06220E0A26A511EE069FFF70C
:10263000DCFD6062606A002812D1A1686162E06816
:10264000401E20620123A26A991A606AFFF7CDFD3D
:10265000E061A16AE068401AA0610020E06204E045
:10266000A16AA0694018401E206270BD70B5044682
:102670000D4620692E1A002E0BD031466069FFF7F7
:10268000B4FD60616069002802D1401E206100E055
:10269000256170BD70B504460E4631466068FFF78F
:1026A000A4FD0546002D55D0E068401EE06060683E
:1026B000A84201D1E8686060A068A84201D1A8687A
:1026C000A060E868002802D0E968A8688860A86867
:1026D000002802D0A968E868C860A069B04236DC6A
:1026E000206AB04233DB6069A8420FD1E868002855
:1026F00007D0E96861616069002807D1401E206148
:1027000004E0A96861612069401E2061E069A84277
:1027100002D1E069C168E161E069002817D0606A10
:10272000002814D0606AC06800280DD1E069806874
:10273000002809D0E0698168E161A069401EA061BC
:10274000206A401E206202E0606AC1686162002067
:10275000E860A860284670BDF0B504460D461646F0
:10276000002E5CDBE068B04259DB0020E860A86026
:10277000E068B04237DD31466068FFF736FD074656
:10278000EF60B868A860B868002801D0B868C56074
:10279000BD602069B04202DB2069401C2061606896
:1027A000B84200D16560A069B04206DDA069401C56
:1027B000A061206A401C20622DE0206AB0422ADB22
:1027C000A069B04200D1E561606A002803D0606A68
:1027D000816861621FE0E068401CA16A81421AD1F1
:1027E000A168616217E06068002809D16560A56092
:1027F000E561A06100216162A06A401E20620AE0DA
:10280000A068C560A068A860A560E068401CA16AD7
:10281000814200D16562E068401CE06000E0002574
:102820002846F0BD01464B68CA699A4202D1CA6A7D
:10283000002A01D0012200E000221046704770B546
:102840000446226B9278911CE07801F004F900298B
:1028500008D1A168606A884201D0012000E0002010
:1028600005460AE0A168606A884202D1E06A002851
:1028700001D1012000E000200546284670BDFEB5CC
:1028800004460F4615461E46002001900422394694
:10289000204601F075F8A663E5642078801CC1B27B
:1028A00068460171A078001FC1B268468171A06BB3
:1028B00000280AD16078801CC1B268464171E07876
:1028C000001FC1B26846C1710FE06178A878801C12
:1028D0000818801CC1B268464171E178A878801C54
:1028E000081AC01EC1B26846C171099800902A46F4
:1028F00001A9201D089BFFF794FCFEBD70B586B0B2
:1029000005460C46002C51D000210122E0780192AE
:1029100002910090A378627821782846FEF7B1FEF4
:10292000A06B002834D02078801CC1B268460175A5
:102930006078801CC1B268464175A078001FC1B2A2
:1029400068468175E06C81786846C1750021017424
:102950004174002004A90091019005AB2846E26C67
:10296000A16B00F0D7F901216078E26C92788018B1
:10297000C01C019100902078A6788019431E6078D1
:10298000E66CB6788019C21C21782846FEF7F7FE5F
:10299000211D2846FFF799FC20463C30E16900F0F4
:1029A000A8F821463C31284600F0ADF806B070BDCD
:1029B00070B505460C46002C0DD0211D2846FFF7AA
:1029C00084FC20463C30E16900F093F821463C311C
:1029D000284600F098F870BD38B504460D46002032
:1029E000009004222946204600F0CAFF2078801C6F
:1029F000C1B268460170A078001FC1B268468170FC
:102A0000A06B00280AD16078801CC1B26846417072
:102A1000E078001FC1B26846C17012E06846417894
:102A2000E06C8078801C0818801CC1B26846417038
:102A3000E178E06C8078801C081AC01EC1B268463C
:102A4000C1706946201DFFF7CEFD2179A0790818D5
:102A5000401CC1B23C20015561793D200155002147
:102A60003E200155E1793F20015538BD70B504463F
:102A70000D462946201DFFF70DFE06462169E06A36
:102A8000814203DD2169E06A081A00E00020206429
:102A900020463C30E16900F02CF8304670BDF8B5B6
:102AA00004460D46164632462946201DFFF754FEC1
:102AB00007462169E06A814203DD2169E06A081A5C
:102AC00000E00020206420463C30E16900F011F86D
:102AD0003846F8BD10B500280AD0002908D00022D9
:102AE000026042608260C2600A461CCA1CC00C3888
:102AF00010BD002806D042688A4202D24268C260F5
:102B000000E0C1607047FEB507460C46207A0028F9
:102B100002D1A078851E01E0E078851EE0780228C9
:102B20006ADDA078022867DDE078A178884263D06A
:102B30006168E068884201D96068E0600021012294
:102B4000E078019202910090A3786278217838466B
:102B5000FEF797FD207A002827D16068002817D05B
:102B6000E278521B921EE3685A431046616800F0F7
:102B700068FF6178491C4618012001900095029079
:102B80002078411C2B4632463846FEF77AFD33E06A
:102B900001200190009502906078421C2078411C31
:102BA0002B463846FEF76DFD26E06068002817D0FA
:102BB000A278521B921EE3685A431046616800F0E7
:102BC00040FF2178491C4618012001900095029091
:102BD0006078421C2B4631463846FEF752FD0BE02A
:102BE00001200190009502906078421C2078411CE1
:102BF0002B463846FEF745FDFEBDF8B506460C46A9
:102C000015463746002F1ED0002D1CD0A0786870C6
:102C10000020287014E00020009069463846E268E1
:102C200090470746009800280AD0216900988847F5
:102C3000002801D0607800E02078297840182870BA
:102C400038780028E7D1F8BDFFB583B004461646B2
:102C500000200290002C36D0002E34D00698002898
:102C600031D061680498884705460021C9438D42E8
:102C700029D0A178481EC117490F0918C910491C4D
:102C8000227851430091216904988847002809D08F
:102C9000A078471EF817400FC019C010401C61787B
:102CA000414300E000990191069F0199B94201D981
:102CB000069900E001990A462846009948433146A2
:102CC000A36898470290029807B0F0BDFEB504468D
:102CD0000F4615461E46A97868464171297801714C
:102CE000606802907F2F14DA3078B1784118089824
:102CF000007881420DDD39462846A3686268FFF7F7
:102D0000A3FF099801AB009031462046089AFEF7D0
:102D100035FEFEBDFFB589B0064615461C460A9F26
:102D20001398002801D0012000E000200790002F18
:102D300052D02078317888424EDAE17807980190B5
:102D400000910290A378627821783046FEF799FCD2
:102D50001298017868460174129841786846417467
:102D6000A9784175706806902CE00020089008A9A9
:102D70003846EA6890470746296908988847002836
:102D800001D0687800E02878694608756846017CBB
:102D9000007D0818401E00280DD4B36872682846CC
:102DA0000899FFF751FF139805AB04AA214600903C
:102DB0003046FEF7E3FD6846017C007D0818C1B28D
:102DC00068460174002F07D03878002804D0684680
:102DD000007CA1788842C8DB0DB0F0BDF0B58BB0A7
:102DE00006460F4615461C460A9700200990089093
:102DF0001198002801D0012000E000200790002F4A
:102E00007DD020783178884279DA002168460174D3
:102E10001098C1B26846417404A92046FEF7EBFF42
:102E20006846007C0390E178079801900091029039
:102E3000A378627821783046FEF723FCA9786846AB
:102E4000417501200890706806905AE000200990B2
:102E500009A9EA680A9890470A9009980A280DD1AA
:102E60000398C1B268460174407CA9784018C1B289
:102E7000684641740898401C089042E02969099806
:102E80008847002801D0687800E0287869460875EE
:102E90006846017C007D0818401EA17888420CDB42
:102EA0000398C1B268460174407CA9784018C1B249
:102EB000684641740898401C08906846017C007D73
:102EC0000818401E002812D46846407CE1788842E9
:102ED0000DDAB368726828460999FFF7B5FE1198B4
:102EE00005AB04AA214600903046FEF747FD684630
:102EF000017C007D0818C1B26846017400E007E05B
:102F000000BF0A98002803D00A98007800289DD1B5
:102F100008980BB0F0BDF7B584B007460C4600200A
:102F200003900125019721E00020029002A9E268A8
:102F300001989047019002980A2803D16D1C002047
:102F4000039013E0216902988847002801D0607837
:102F500000E020780646039881190698814202D93C
:102F60006D1C039602E00398801903900198007885
:102F70000028D9D1284607B0F0BD000030B5024680
:102F80000B4600200021002A0FD00AE08D001468B3
:102F9000645924689C4203D18D001468605903E091
:102FA000491C54688C42F1DC00BF30BDF8B50446C2
:102FB0000D4601260027002C11D0B01E854205D0F9
:102FC00029462046FFF7DAFF074601E02068076838
:102FD000002F01D0A76004E00126F64301E001269E
:102FE000F643012E01D16B4804603046F8BD70B540
:102FF00005460126002467480068002819D0654866
:1030000000688468002C16D06068002813D06068BF
:10301000406800280FD05F490968C86861684A683D
:103020002946904706465B490968C968C8698047D0
:1030300001E00126F643304670BDF8B5054601268D
:10304000002454480068002831D052480068846841
:10305000002C06D06068002803D06068C068002893
:1030600002D10126F64308E04A490968C868616848
:103070006A46CB6829469847064646490968C868A3
:1030800061680B693146009A9847064641480068D6
:10309000C06800280DD03F480068C068C06900289B
:1030A00007D03C490968C968C869804701E0012622
:1030B000F6433046F8BDF8B505460E4601273548BB
:1030C0000068002826D0294632480068FFF756FFDE
:1030D0000446002C01D1871E1EE0A068002802D003
:1030E0000227FF4318E02B4800688068A060294849
:1030F00000688460606800280ED06068406800281E
:103100000AD024490968C86861684A68314690470E
:10311000074601E00127FF433846F8BD70B5054674
:1031200001261C480068002820D01A4800688068E2
:10313000846800201749096889688860002C12D0CB
:103140001448006884606068002811D06068406896
:1031500000280DD00F490968C86861684A68294687
:103160009047064604E00126F64301E00126F643B7
:10317000304670BD01460120002903D0054A12687F
:10318000002A02D10120C04302E0024A1268D16045
:1031900070470000280000203EB5044650215F48DB
:1031A00000F04DFC00216846017241722178817265
:1031B0006178C172002000F077F90520584900239A
:1031C000584A0091019002A95448FFF758FB01208A
:1031D0003EBD70B504460D4650492046FFF78EFBB4
:1031E000012070BD70B504460D464C492046FFF7DE
:1031F00085FB012070BDF7B582B00C461546012055
:103200000190002000902068012839D1A08886B262
:1032100037053F0D0D2F09D01B2F0AD03846FF3838
:103220003C38002808D0022828D115E00120009061
:1032300025E00220009022E038484069002806DDA1
:1032400036484069411E3548001DFFF70FFA3349E3
:103250000298FFF753FB12E0304841690069401EB5
:10326000814206DA2D484069411C2C48001DFFF7B9
:10327000FDF92A490298FFF741FB00E000BF00BFBB
:10328000002D01D000982860019805B0F0BD70B500
:1032900005460E461446012C38D1204840690300EB
:1032A00000F0DCFC08050B10161C20262C32002137
:1032B000FD208000FFF7FFFE27E000211A48FFF7FE
:1032C000FAFE22E000211848001DFFF7F4FE1CE082
:1032D00000211548401DFFF7EEFE16E00020FFF725
:1032E0001DFF12E011A1FB208000FFF7E4FE0CE0BF
:1032F00000210D48C01DFFF7DEFE06E000210A4850
:103300000830FFF7D8FE00E000BF04E0022C02D135
:103310000020FFF703FF012070BD000080060020A1
:103320002C000020A83C0000EA03000054686973E8
:1033300020697320612074657374206E6F746963F3
:10334000652E0000014614204843594A8018406801
:103350007047014614204843554A80180069704759
:1033600010B5044600230BE052480078FFF7EAFF4F
:103370000C215943405AA04201D1184610BD5B1C94
:103380004C480078FFF7E5FF9842EDDC0020C04391
:10339000F4E7F0B50246002510460023002833D09C
:1033A00000BF047880263440002C02D10378012528
:1033B0001CE00478E0263440C02C04D10478E306F5
:1033C000DB0E022512E00478F0263440E02C04D114
:1033D000047823071B0F032508E00478F8263440FF
:1033E000F02C03D1047863075B0F0425012407E068
:1033F000401C9E010778BF06BF0E3E433346641C47
:10340000AC42F5DB401C00BF0B60F0BD01467F29DC
:1034100001D2002000E001207047014614204843FB
:10342000234A801880687047014614204843204A88
:103430008018C0687047F7B584B00D4617461D4820
:103440000078FFF7EAFF03461A480078FFF7ECFF21
:10345000401E0190C017410F01980818C010401C71
:10346000434319460093049800F0EBFA0290114888
:103470000078FFF767FF01460C22029850430818B6
:10348000406803902E46002D0BD0002407E00398DF
:10349000007830700398401C761C0390641CBC427A
:1034A000F5D3204607B0F0BD024908707047000010
:1034B000A00000209C0000203EB50446502160483A
:1034C00000F0BDFA002168460172417221788172D4
:1034D0006178C1720020FFF7E7FF062059490023F9
:1034E000594A0091019002A95548FFF7C8F90120F7
:1034F0003EBD70B504460D4651492046FFF7FEF922
:10350000012070BD70B504460D464D492046FFF7B9
:10351000F5F9012070BDF7B582B00C4615460120C3
:103520000190002000902068012839D1A08886B23F
:1035300037053F0D0D2F09D01B2F0AD03846FF3815
:103540003C38002808D0022828D115E0012000903E
:1035500025E00220009022E039484069002806DD7D
:1035600037484069411E3648001DFFF77FF834494F
:103570000298FFF7C3F912E0314841690069401E23
:10358000814206DA2E484069411C2D48001DFFF794
:103590006DF82B490298FFF7B1F900E000BF00BFBA
:1035A000002D01D000982860019805B0F0BD70B5DD
:1035B00005460E461446012C3AD1214840690300C5
:1035C00000F04CFB08050A10161C22282E3400219E
:1035D0001E48FFF770FD2AE000211C48C01EFFF7BF
:1035E0006AFD24E000211948401CFFF764FD1EE03D
:1035F00000211648801CFFF75EFD18E000211348EB
:10360000801DFFF758FD12E011A1FB208000FFF79D
:1036100052FD0CE000210D48001DFFF74CFD06E0B7
:1036200000210A48401DFFF746FD00E000BF04E00E
:10363000022C02D10020FFF771FD012070BD0000B7
:10364000D0060020F0000020A83C0000ED030000A0
:103650005468697320697320612074657374206EE7
:103660006F746963652E000070B5012520214F48F5
:1036700000F0E5F94E480021016041608160C160C1
:1036800080204A490870402048704A4848606421B8
:10369000464881604848454948614848086148486B
:1036A000C86100BF032042494860464808603F485F
:1036B000C86008460068002829D0002423E03C4860
:1036C0000068A100405800281CD039480068A100BB
:1036D00040584068002815D035480068A10040587F
:1036E0004068006800280DD031480068A20080586A
:1036F000406801682D48884700202D490968A200CC
:1037000089588860641C2A484068A042D7DC2E494A
:103710002748FFF74BFC0546002D00DA07E00020A4
:10372000FFF765FC0546002D00DA00E000BF00BF92
:10373000284670BD1CB501200090FDF70FFB0190DD
:103740006846FFF77AFC1CBD10B5FDF7F2FA0028B9
:1037500007D1FDF7F1FA002803D1FDF7F0FA0028B0
:1037600007D0FDF7EFFAFDF7F1FAFDF7F3FAFFF7EF
:10377000E1FF10BD10B5FDF7DCFA002807D1FDF719
:10378000DBFA002803D1FDF7DAFA002809D0FDF7AB
:10379000D9FAFDF7DBFAFDF7DDFAFFF7CBFF0120E1
:1037A00010BD0020FCE77047704700002007002094
:1037B0004007002050070020670700004B0800006A
:1037C0007508000070010020EB0300003EB50446C0
:1037D0005021614800F033F90021684601724172BE
:1037E000217881726178C1720020FFF75DFE0920A7
:1037F0005A4900235A4A0091019002A95648FFF7FE
:103800003EF801203EBD70B504460D4652492046A3
:10381000FFF774F8012070BD70B504460D464E499F
:103820002046FFF76BF8012070BDF7B582B00C465B
:10383000154601200190002000902068012839D110
:10384000A08886B237053F0D0D2F09D01B2F0AD057
:103850003846FF383C38002808D0022828D115E027
:103860000120009025E00220009022E03A484069C3
:10387000002806DD38484069411E3748001DFEF724
:10388000F5FE35490298FFF739F812E032484169F0
:103890000069401E814206DA2F484069411C2E48CB
:1038A000001DFEF7E3FE2C490298FFF727F800E021
:1038B00000BF00BF002D01D000982860019805B01E
:1038C000F0BD70B505460E461446012C3DD1224888
:1038D0004069030000F0C2F909060B11171D2127EA
:1038E0002D33370000211F48FFF7E5FB2CE00021B6
:1038F0001C48C01EFFF7DFFB26E000211948401CD2
:10390000FFF7D9FB20E000211648801CFFF7D3FB0E
:103910001AE00020FFF702FC16E013A1FB20800054
:10392000FFF7C9FB10E000210E48001DFFF7C3FBA5
:103930000AE000210B48401DFFF7BDFB04E000201A
:10394000FFF7ECFB00E000BF04E0022C02D10020F6
:10395000FFF7E4FB012070BDB40700207C010020CC
:10396000A83C0000ED0300005468697320697320CF
:10397000612074657374206E6F746963652E000036
:10398000F8B5042A2CD3830712D00B78491C037096
:10399000401C521E83070BD00B78491C0370401C3F
:1039A000521E830704D00B78491C0370401C521E22
:1039B0008B079B0F05D0C91ADF002023DE1B08C927
:1039C0000AE0FCF7C1FBF8BD1D4608C9FD401C46D6
:1039D000B4402C4310C0121F042AF5D2F308C91AB0
:1039E000521EF0D40B78491C0370401C521EEAD4BE
:1039F0000B78491C0370401C012AE4D4097801703B
:103A0000F8BD01E004C0091F0429FBD28B0701D5D2
:103A10000280801CC90700D00270704700290BD0BB
:103A2000C30702D00270401C491E022904D3830739
:103A300002D50280801C891EE3E70022EEE7002207
:103A4000DFE7002203098B422CD3030A8B4211D3F8
:103A500000239C464EE003460B433CD4002243081F
:103A60008B4231D303098B421CD3030A8B4201D30F
:103A700094463FE0C3098B4201D3CB01C01A5241A7
:103A800083098B4201D38B01C01A524143098B42F7
:103A900001D34B01C01A524103098B4201D30B01E0
:103AA000C01A5241C3088B4201D3CB00C01A524105
:103AB00083088B4201D38B00C01A524143088B42CA
:103AC00001D34B00C01A5241411A00D20146524163
:103AD000104670475DE0CA0F00D04942031000D382
:103AE0004042534000229C4603098B422DD3030AD7
:103AF0008B4212D3FC22890112BA030A8B420CD3E7
:103B0000890192118B4208D3890192118B4204D30F
:103B100089013AD0921100E08909C3098B4201D38F
:103B2000CB01C01A524183098B4201D38B01C01AC9
:103B3000524143098B4201D34B01C01A5241030940
:103B40008B4201D30B01C01A5241C3088B4201D3EF
:103B5000CB00C01A524183088B4201D38B00C01A9C
:103B60005241D9D243088B4201D34B00C01A524173
:103B7000411A00D20146634652415B10104601D300
:103B80004042002B00D54942704763465B1000D38A
:103B9000404201B50020C046C04602BD7047704794
:103BA0007047754600F024F8AE4605006946534656
:103BB000C008C000854618B020B5FDF713FC60BCF6
:103BC00000274908B6460026C0C5C0C5C0C5C0C547
:103BD000C0C5C0C5C0C5C0C5403D49008D46704781
:103BE00010B50446C046C0462046FCF7A6FA10BDF4
:103BF000004870470408002001491820ABBEFEE7CA
:103C000026000200704770B58C180578401C6B07C1
:103C10005B0F01D10378401C2A1106D10278401CA9
:103C200003E00678401C0E70491C5B1EF9D12B077F
:103C300005D40023521E0DD40B70491CFAE70378FB
:103C4000401CCB1A921C03E01D780D70491C5B1CB4
:103C5000521EF9D5A142D8D3002070BD30B47446AD
:103C6000641E2578641CAB4204D3635D5B00E318DB
:103C700030BC18471D46F8E7AED580A83FD30040BA
:103C80008D142002A1C8DA128166D9F1DB30A4A616
:103C9000AF0000000810100061330000373400004E
:103CA000933300000D340000060C0C00613300005B
:103CB00037340000933300000D3400000B1414005F
:103CC0006133000037340000933300000D340000EE
:103CD0000000000000000000000000008080800064
:103CE00000000000000000010101000000000000D1
:103CF0000000C0F03808080838F0C000003FFFC0DE
:103D0000000000C0FF3F00000000010101010100B0
:103D100000000000001010F8F80000000000000093
:103D20000000FFFF00000000000000010101010190
:103D300001000000E0F01808080818F0E00000801A
:103D4000C06030180C06C3C100000101010101016F
:103D50000101010000707808080818F0E000000078
:103D6000E0E00002020387FC78000000010101018D
:103D7000010100000000000000C0F0F8F8000000A1
:103D800000181E171110FFFF1010000000000001A6
:103D90000101010101000000F8F8080808080808FE
:103DA0000000E0E30303010183FE7C000000010149
:103DB0000101010100000000C0E03018080838309F
:103DC0000000003FFFC301010183FE7C00000000F2
:103DD0000101010101000000003838080808C8E8A6
:103DE00038180000000000F8FE0701000000000085
:103DF00000000101000000000000E0F018080808C1
:103E000018F0E0000078FD8702020287FD780000CC
:103E10000000010101010100000000E0F0180808A5
:103E20000838F0C0000003C7CC08088CE67F1F00EC
:103E30000000000101010100000000000000C0F0CE
:103E4000F0C00000000000C0FC3F13133FFCC000A6
:103E500000010101010000010101010010F0F0105A
:103E6000101090B070400000FFFF0202020F8FC0E0
:103E70004000010101010101010101000010F0F009
:103E800010101090B070400000FFFF0202020F0FF0
:103E9000000000010101010000000000000000809E
:103EA000C06030101030F0F000003FFFC080000014
:103EB00008F8F808000000000101010101000010ED
:103EC000F0F0100000000000000000FFFF00000004
:103ED0000080C04000010101010101010101000059
:103EE00010F0F0F0C00010F0F0100000FFFF01072C
:103EF0001EF8FFFF000001010101000000010100A8
:103F00000010F0F010000010F0F01000007FFF80B3
:103F1000000080FF7F00000000000101010100009F
:103F20000000000000303030000000000000000100
:103F300001FFFF000000000000000101010101017C
:103F4000000000000000000000000000000001FF71
:103F5000FF03FFFF01FFFE0000010101010101015C
:103F6000010101000000000000000000000000004E
:103F70007CFE8301010183FE7C0000000001010141
:103F8000010100000000000000000000000000002F
:103F90000001FFFF83010183FE7C0000080F0F0971
:103FA000010101000000000000000000000000000E
:103FB00000000101FFFF06030103030000010101EE
:103FC00001010100000000000000000000000000EE
:103FD0000000017FFFF17F7FF1FF7F010000000102
:103FE00001000001010000002E000000D03C000094
:103FF0000B14000030000000F13C00000B14000026
:1040000031000000123D00000B14000032000000DF
:10401000333D00000B14000033000000543D00004D
:104020000B14000034000000753D00000B1400006C
:1040300035000000963D00000B1400003600000023
:10404000B73D00000B14000037000000D83D000011
:104050000B14000038000000F93D00000B140000B4
:10406000390000001A3E00000B140000410000005F
:104070003B3E00000B140000450000005C3E0000C9
:104080000B140000460000007D3E00000B140000F1
:10409000470000009E3E00000B1400004C00000092
:1040A000BF3E00000B1400004E000000E03E000088
:1040B0000B14000055000000013F00000B1400002D
:1040C00069000000223F00000B1400006D0000009A
:1040D000433F00000B1400006F000000643F00002D
:1040E0000B14000070000000853F00000B1400005E
:1040F00072000000A63F00000B14000077000000D3
:10410000C73F00000B1400000000C038E0000000B2
:10411000203C23020227382008F888888870000095
:10412000203F202020110E00C03008080808380069
:10413000071820202010080008F808080810E000E0
:10414000203F202020100F0008F88888E808100081
:10415000203F20202320180008F88888E808100055
:10416000203F200003000000C0300808083800008D
:1041700007182020221E020008F808000008F8088E
:10418000203F210101213F20000808F80808000015
:104190000020203F2020000000000808F808080048
:1041A000C08080807F00000008F888C028180800C0
:1041B000203F20012638200008F8080000000000F9
:1041C000203F20202020300008F8F800F8F80800F0
:1041D000203F013E013F200008F830C00008F808E9
:1041E000203F200007183F00E01008080810E000FA
:1041F0000F10202020100F0008F808080808F00011
:10420000203F210101010000E01008080810E00033
:104210000F10282830504F0008F8888888887000D0
:10422000203F2000030C3020007088080808380068
:104230000038202121221C00180808F8080818005E
:104240000000203F2000000008F808000008F808DF
:10425000001F202020201F000878880000C8380890
:10426000000007380E01000008F800F800F8080008
:1042700000033E013E0300000818688080681808AB
:1042800020302C03032C30200838C800C838080020
:104290000000203F2000000010080808C83808006F
:1042A0002038262120201800000080808000000097
:1042B00000192424123F200010F00080800000002C
:1042C000003F112020110E000000008080800000BF
:1042D000000E112020201100000080808090F0004E
:1042E000001F202020103F200000808080800000E0
:1042F000001F242424241700008080E090902000D8
:104300000020203F2020000000008080808080006E
:10431000006B94949493600010F000808080000003
:10432000203F210000203F200080989800000000DE
:104330000020203F2020000000000080989800000E
:1043400000C08080807F000010F00000808080002E
:10435000203F240629302000001010F80000000043
:104360000020203F2020000080808080808080000E
:10437000603F20003F20003F808000808080000060
:10438000203F210000203F2000008080808000002E
:10439000001F202020201F0080800080800000005F
:1043A00080FF912020110E0000000080800080001E
:1043B000000E11202091FF8080808000808080008E
:1043C00020203F21200001000000808080808000AC
:1043D0000033242424241900008080E08080000021
:1043E0000000001F2020100080800000008080005E
:1043F000001F202020103F208080800080808000CF
:1044000000030C300C03000080800080800080805E
:10441000010E300C0738060100808080008080008B
:104420000020310E2E3120008080800000808080AE
:1044300000818678180601000080808080808000DE
:104440000021302C222130004100000008410000F2
:104450000810000042000000184100000810000091
:104460004300000028410000081000004400000044
:1044700038410000081000004500000048410000DD
:10448000081000004600000058410000081000001D
:1044900047000000684100000810000048000000CC
:1044A0007841000008100000490000008841000029
:1044B000081000004A0000009841000008100000A9
:1044C0004B000000A8410000081000004C00000054
:1044D000B8410000081000004D000000C841000075
:1044E000081000004E000000D84100000810000035
:1044F0004F000000E84100000810000050000000DC
:10450000F8410000081000005100000008420000BF
:1045100008100000520000001842000008100000BF
:104520005300000028420000081000005400000062
:10453000384200000810000055000000484200000A
:10454000081000005600000058420000081000004B
:1045500057000000684200000810000058000000EA
:104560007842000008100000590000008842000056
:10457000081000005A0000009842000008100000D7
:1045800061000000A8420000081000006200000066
:10459000B84200000810000063000000C84200009C
:1045A0000810000064000000D8420000081000005D
:1045B00065000000E84200000810000066000000EE
:1045C000F8420000081000006700000008430000E7
:1045D00008100000680000001843000008100000E8
:1045E0006900000028430000081000006A00000075
:1045F00038430000081000006B0000004843000032
:10460000081000006C000000584300000810000073
:104610006D00000068430000081000006E000000FC
:1046200078430000081000006F000000884300007D
:1046300008100000700000009843000008100000FF
:1046400071000000A8430000081000007200000084
:10465000B84300000810000073000000C8430000C9
:104660000810000074000000D8430000081000008B
:1046700075000000E843000008100000760000000C
:10468000F843000008100000770000000844000014
:104690000810000078000000184400000810000016
:1046A0007900000028440000081000007A00000093
:1046B0003844000008100000000000000000000066
:1046C0000000000000007C0000000000020000006C
:1046D00000040304030000000000000090FC90FCB4
:1046E00090000003000300001824FE44880001022B
:1046F000070201003844F8D02CC000030001020179
:10470000C038E418E02001020201020104030000A5
:1047100000000000000000000000F806010000009A
:1047200000030400000106F800000004030000007C
:104730009060F8609000000001000000002020F868
:104740002020000000000000000000000000040322
:104750000000000020202020202000000000000099
:104760000000000000000002000000000000C03057
:104770000C02040300000000F8040404F800010225
:10478000020201000008FC00000000020302000019
:10479000188444241800030202020200080424249E
:1047A000D800010202020100C0A098FC80000000B5
:1047B000020302007C242424C4000102020201003E
:1047C000F0482424C8000102020201000004C4349D
:1047D0000C00000003000000D8242424D8000102AB
:1047E0000202010038444424F800010202010000E2
:1047F0000000100000000000020000000000200087
:1048000000000000060000000060900804000000A6
:1048100000010200505050505050000000000000B5
:104820000004089060000002010000001804C42485
:10483000180000000200000000E09CF0800002036D
:104840000000030204FC2424D80002030202010039
:10485000F80404040C0001020202010004FC040438
:10486000F80002030202010004FC24740C0002039D
:104870000202030004FC24740C0002030200000086
:10488000F0080444CC4000010202010004FC202096
:10489000FC040203000003020404FC0404000202FE
:1048A00003020200000404FC04040C0808070000D2
:1048B00004FC24508C0402030200030204FC0400E4
:1048C0000000020302020203FC3CC03CFC060300A1
:1048D0000300030304FC30C4FC04020302000300D1
:1048E000F8040404F80001020202010004FC24247C
:1048F0001800020302000000F8848404F80001029A
:104900000207050004FC246498000203020003026D
:10491000182424448C000302020201000C04FC044D
:104920000C0000020302000004FC0000FC04000173
:1049300002020100047C80E01C040000030000006F
:104940003CC07CC03C00000300030000049C609C51
:104950000400020300030200043CC03C0400000207
:10496000030200000C84641C040002030202030022
:104970000000FF0101000000070404000000000126
:104980000600000101FF0000000404070000000011
:10499000000000000808080808080040A0A0C000A7
:1049A00000010202030202FE2020C00000030202F6
:1049B000010000C02020600000010202010000C0D0
:1049C0002022FE0000010202030200C0A0A0C000DD
:1049D0000001020202000020FC2222040002030265
:1049E00002000040A0A0602000050A0A0A0402FE9E
:1049F0002020C0000203020003020020E6000000A5
:104A0000000203020000000020E60000080808077A
:104A1000000002FE8060200002030001020002028A
:104A2000FE000000020203020200E020E020C000BD
:104A300003000300030020E02020C0000203020066
:104A4000030200C02020C00000010202010020E09B
:104A50002020C000080F0A02010000C02020E00052
:104A60000001020A0F0820E040202000020302009B
:104A700000000060A0A0200000020202030000204D
:104A8000F820200000000302020020E00020E000E7
:104A900000010202030220E000E020000000030009
:104AA00000006080E08060000003000300002060E0
:104AB0008060200002030003020020E00000E020EC
:104AC0000808050300000020A06020000002030287
:104AD0000200000020000000B8460000060C0000A4
:104AE00021000000C4460000060C00002200000067
:104AF000D0460000060C000023000000DC46000049
:104B0000060C000024000000E8460000060C00002F
:104B100025000000F4460000060C000026000000FE
:104B200000470000060C0000270000000C470000B2
:104B3000060C00002800000018470000060C0000CA
:104B40002900000024470000060C00002A00000095
:104B500030470000060C00002B0000003C4700001E
:104B6000060C00002C00000048470000060C000066
:104B70002D00000054470000060C00002E0000002D
:104B800060470000060C00002F0000006C4700008A
:104B9000060C00003000000078470000060C000002
:104BA0003100000084470000060C000032000000C5
:104BB00090470000060C0000330000009C470000F6
:104BC000060C000034000000A8470000060C00009E
:104BD00035000000B4470000060C0000360000005D
:104BE000C0470000060C000037000000CC47000062
:104BF000060C000038000000D8470000060C00003A
:104C000039000000E4470000060C00003A000000F4
:104C1000F0470000060C00003B000000FC470000CD
:104C2000060C00003C00000008480000060C0000D4
:104C30003D00000014480000060C00003E0000008B
:104C400020480000060C00003F0000002C48000037
:104C5000060C00004100000038480000060C00006F
:104C60004200000044480000060C00004300000021
:104C700050480000060C0000440000005C480000A2
:104C8000060C00004500000068480000060C00000B
:104C90004600000074480000060C000047000000B9
:104CA00080480000060C0000480000008C4800000E
:104CB000060C00004900000098480000060C0000A7
:104CC0004A000000A4480000060C00004B00000051
:104CD000B0480000060C00004C000000BC4800007A
:104CE000060C00004D000000C8480000060C000043
:104CF0004E000000D4480000060C00004F000000E9
:104D0000E0480000060C000050000000EC480000E5
:104D1000060C000051000000F8480000060C0000DE
:104D20005200000004490000060C0000530000007F
:104D300010490000060C0000540000001C4900004F
:104D4000060C00005500000028490000060C000079
:104D50005600000034490000060C00005700000017
:104D600040490000060C0000580000004C490000BB
:104D7000060C00005900000058490000060C000015
:104D80005A00000064490000060C00005B000000AF
:104D900070490000060C00005C0000007C49000027
:104DA000060C00005D00000082490000060C0000B7
:104DB0005F0000008E490000060C0000610000004A
:104DC0009A490000060C000062000000A64900009D
:104DD000060C000063000000B2490000060C000051
:104DE00064000000BE490000060C000065000000E1
:104DF000CA490000060C000066000000D649000009
:104E0000060C000067000000E2490000060C0000EC
:104E100068000000EE490000060C00006900000078
:104E2000FA490000060C00006A000000064A000073
:104E3000060C00006B000000124A0000060C000087
:104E40006C0000001E4A0000060C00006D0000000F
:104E50002A4A0000060C00006E000000364A0000DE
:104E6000060C00006F000000424A0000060C000023
:104E7000700000004E4A0000060C000071000000A7
:104E80005A4A0000060C000072000000664A00004A
:104E9000060C000073000000724A0000060C0000BF
:104EA000740000007E4A0000060C0000750000003F
:104EB0008A4A0000060C000076000000964A0000B6
:104EC000060C000077000000A24A0000060C00005B
:104ED00078000000AE4A0000060C000079000000D7
:104EE000BA4A0000060C00007A000000C64A000022
:104EF000060C000044617461206C6F6767696E671F
:104F0000000000004261636B000000004C6F636BA7
:104F100000000000556E6C6F636B00005365747485
:104F2000696E677300000000496E666F726D617490
:104F3000696F6E0053746174697374696373000000
:104F4000446961676E6F7369730000005072657326
:104F500065740000506F696E742043616C69627201
:104F60002E0000004C616E677561676500000000EF
:104F7000416E676C6500000041646A7573746D650D
:104F80006E74204C6F636B00426F6C7420436F75BE
:104F90006E74657200000000546F72717565736500
:104FA0006E736F72000000004C696D6974730000CD
:104FB00053656C65637420556E697400DC4F0000A6
:104FC000000000202C020000063C00009050000071
:104FD0002C0200203C08000004010000012CE31C0E
:104FE0004FDA1410E3F44EDA0C20DA04102399316E
:104FF0001AD3041AE5041AF704238F3223F3032289
:105000007CC22023D44A2A06503132583201234828
:1050100044320832103234320223E83F2A0B9831EE
:105020003218C00950617373776F7264DA4C84DA96
:105030003410DA2810DA4010419ADCA0E9D41AB909
:105040008D1AF3042305351A17041AAF041AEBD48A
:105050004B5001341A64081A9040132002DB207070
:105060003CDAA810DA8810DA7810DA9810DA5410DE
:10507000DAB010DA6410E9BC23CD372307381A19E7
:10508000041A2B041AC3041AF4BC1A0CAC41000015
:04000005000000C136
:00000001FF
